S02B0000433A2F55736572732F6A616B752F446F63756D656E74732F43726F7373576F726B732050726F6A65EC
S3150800000090010020890200082D0200082F0200082E
S31508000010310200083302000835020008000000001B
S315080000200000000000000000000000003702000881
S3150800003039020008000000003B0200083D020008E3
S315080000403F02000841020008430200084502000872
S3150800005047020008490200084B0200084D02000842
S315080000604F02000851020008530200085502000812
S3150800007057020008590200085B0200085D020008E2
S315080000805F020008610200086302000865020008B2
S3150800009067020008690200086B0200086D02000882
S315080000A06F02000871020008730200087502000852
S311080000B077020008790200087B020008AD
S315080000BC3B493C480A1A02D0072291438D463A49D5
S315080000CC3A480A1A06D00722914381F30988022274
S315080000DC82F3148836483749374A00F042F83748CD
S315080000EC3749384A00F03DF837483849384A00F05D
S315080000FC38F838483849394A00F033F83848394915
S3150800010C394A00F02EF8394839493A4A00F029F8A4
S3150800011C39483A493A4A00F024F83A483A4900220A
S3150800012C00F037F839483A49002200F032F83948D5
S3150800013C3949091A082902DB00220260416026485F
S3150800014C2649884205D00268043003B4904703BC9C
S3150800015CF7E700208646EC46002000212F4A9047F8
S3150800016CFEE7884214D0521A12D003460B431343A7
S3150800017C0324234206D1036804300B600431043A85
S3150800018CF9D17047037801300B700131013AF9D176
S3150800019C7047884202D002700130FAE770470000B7
S315080001AC9001002090000020900100209001002072
S315080001BC1803000800000020010000209002000827
S315080001CC9002000808030008180300080000002025
S315080001DC00000020080300080803000808030008AC
S315080001EC08030008080300080803000808030008A9
S315080001FC08030008180300081C0300080C0000205C
S3150800020C0C000020040000200C0000200C0000202C
S3150800021C0C0000201000002090000020910200081D
S3150800022CFEE7FEE7FEE7FEE7FEE7FEE7FEE7FEE78C
S3150800023CFEE7FEE7FEE7FEE7FEE7FEE7FEE7FEE77C
S3150800024CFEE7FEE7FEE7FEE7FEE7FEE7FEE7FEE76C
S3150800025CFEE7FEE7FEE7FEE7FEE7FEE7FEE7FEE75C
S3150800026CFEE7FEE7FEE7FEE7FEE7FEE7FEE7FEE74C
S3150800027C0348854600F001F81AE77047FEE70000C8
S3090800028C00900020B0
S3150800029010B5064B1B781A00054B1100180000F024
S315080002A011F8002000F006F8C04610BD0000002036
S315080002B00803000810B501002E2000F00DF810BD47
S315080002C0704770470FB400B50A2001A900F004F87A
S315080002D002BC04B00847000070B504000D00FFF723
S315080002E0EFFF074B1D6080231C43064B1C601A005A
S315080002F01368002BFCD1FFF7E4FF014B186870BDAB
S30D0800030004000020080000209B
S3150800030868656C6C6F20776F726C640A20256400C8
S3060800031805D1
S7050800027D73
